{
  "contractName": "BabiesWithoutBorders",
  "abi": [
    {
      "constant": true,
      "inputs": [
        {
          "name": "",
          "type": "uint256"
        }
      ],
      "name": "parentAgen",
      "outputs": [
        {
          "name": "",
          "type": "uint256"
        }
      ],
      "payable": false,
      "stateMutability": "view",
      "type": "function"
    },
    {
      "constant": true,
      "inputs": [
        {
          "name": "",
          "type": "uint256"
        }
      ],
      "name": "childrenAgen",
      "outputs": [
        {
          "name": "",
          "type": "uint256"
        }
      ],
      "payable": false,
      "stateMutability": "view",
      "type": "function"
    },
    {
      "constant": false,
      "inputs": [
        {
          "name": "age",
          "type": "uint256"
        },
        {
          "name": "medCond",
          "type": "uint256"
        },
        {
          "name": "gen",
          "type": "uint256"
        },
        {
          "name": "docVeri",
          "type": "uint256"
        }
      ],
      "name": "createId",
      "outputs": [
        {
          "name": "",
          "type": "uint256"
        }
      ],
      "payable": false,
      "stateMutability": "nonpayable",
      "type": "function"
    },
    {
      "constant": false,
      "inputs": [
        {
          "name": "marStatus",
          "type": "uint256"
        },
        {
          "name": "net",
          "type": "uint256"
        },
        {
          "name": "ageComb",
          "type": "uint256"
        },
        {
          "name": "docVeri",
          "type": "uint256"
        },
        {
          "name": "yrsMar",
          "type": "uint256"
        }
      ],
      "name": "createParentId",
      "outputs": [
        {
          "name": "",
          "type": "uint256"
        }
      ],
      "payable": false,
      "stateMutability": "nonpayable",
      "type": "function"
    },
    {
      "constant": true,
      "inputs": [
        {
          "name": "age",
          "type": "uint256"
        },
        {
          "name": "medCond",
          "type": "uint256"
        },
        {
          "name": "gen",
          "type": "uint256"
        },
        {
          "name": "docVeri",
          "type": "uint256"
        }
      ],
      "name": "parentReq",
      "outputs": [
        {
          "name": "",
          "type": "int256"
        }
      ],
      "payable": false,
      "stateMutability": "view",
      "type": "function"
    },
    {
      "constant": true,
      "inputs": [
        {
          "name": "marStatus",
          "type": "uint256"
        },
        {
          "name": "net",
          "type": "uint256"
        },
        {
          "name": "ageComb",
          "type": "uint256"
        },
        {
          "name": "docVeri",
          "type": "uint256"
        },
        {
          "name": "yrsMar",
          "type": "uint256"
        }
      ],
      "name": "childReq",
      "outputs": [
        {
          "name": "",
          "type": "int256"
        }
      ],
      "payable": false,
      "stateMutability": "view",
      "type": "function"
    }
  ],
  "bytecode": "0x60806040526008600255600254600a0a60035534801561001e57600080fd5b5061067b8061002e6000396000f3fe608060405260043610610078576000357c0100000000000000000000000000000000000000000000000000000000900463ffffffff1680632a3c0cb11461007d5780633274f791146100f45780633a772a171461014357806347683b51146101b05780634da4fd6b146101ff578063bda0f5811461026c575b600080fd5b34801561008957600080fd5b506100de600480360360a08110156100a057600080fd5b8101908080359060200190929190803590602001909291908035906020019092919080359060200190929190803590602001909291905050506102e3565b6040518082815260200191505060405180910390f35b34801561010057600080fd5b5061012d6004803603602081101561011757600080fd5b810190808035906020019092919050505061039e565b6040518082815260200191505060405180910390f35b34801561014f57600080fd5b5061019a6004803603608081101561016657600080fd5b81019080803590602001909291908035906020019092919080359060200190929190803590602001909291905050506103c1565b6040518082815260200191505060405180910390f35b3480156101bc57600080fd5b506101e9600480360360208110156101d357600080fd5b8101908080359060200190929190505050610461565b6040518082815260200191505060405180910390f35b34801561020b57600080fd5b506102566004803603608081101561022257600080fd5b8101908080359060200190929190803590602001909291908035906020019092919080359060200190929190505050610484565b6040518082815260200191505060405180910390f35b34801561027857600080fd5b506102cd600480360360a081101561028f57600080fd5b810190808035906020019092919080359060200190929190803590602001909291908035906020019092919080359060200190929190505050610565565b6040518082815260200191505060405180910390f35b600081600281101515156102f657600080fd5b60018414151561030557600080fd5b600087878787876040516020018086815260200185815260200184815260200183815260200182815260200195505050505050604051602081830303815290604052805190602001206001900490506003548181151561036157fe5b0690506001819080600181540180825580915050906001820390600052602060002001600090919290919091505550809250505095945050505050565b6001818154811015156103ad57fe5b906000526020600020016000915090505481565b60006001821415156103d257600080fd5b60008585858560405160200180858152602001848152602001838152602001828152602001945050505050604051602081830303815290604052805190602001206001900490506003548181151561042657fe5b069050600081908060018154018082558091505090600182039060005260206000200160009091929091909150555080915050949350505050565b60008181548110151561047057fe5b906000526020600020016000915090505481565b600080600354868686866040516020018085815260200184815260200183815260200182815260200194505050505060405160208183030381529060405280519060200120600190048115156104d657fe5b06905060008090506000805490508111151561055a57816000828154811015156104fc57fe5b906000526020600020015414156105305760008181548110151561051c57fe5b90600052602060002001549250505061055d565b7fffffffffffffffffffffffffffffffffffffffffffffffffffffffffffffffff9250505061055d565b50505b949350505050565b6000806003548787878787604051602001808681526020018581526020018481526020018381526020018281526020019550505050505060405160208183030381529060405280519060200120600190048115156105bf57fe5b06905060008090506001805490508111151561064357816001828154811015156105e557fe5b906000526020600020015414156106195760018181548110151561060557fe5b906000526020600020015492505050610646565b7fffffffffffffffffffffffffffffffffffffffffffffffffffffffffffffffff92505050610646565b50505b9594505050505056fea165627a7a7230582074c6112b9700916849d39eff1563c0c25e2f1f79b0a7d0ce44f0d56cb84d14240029",
  "source": "pragma solidity ^0.5.0;\n\ncontract BabiesWithoutBorders{\n\n     uint[] public childrenAgen;\n     uint[] public parentAgen;\n     uint idDigits = 8;\n     uint idMod = 10 ** idDigits; \n     \n    modifier yrsMarriage(uint yearsMar){\n        require(yearsMar >= 2);\n         _;\n     }\n     \n    modifier agencies(address _caller){\n        require(msg.sender == _caller );\n        _;\n    }\n    \n    function createId(uint age, uint medCond, uint gen , uint docVeri ) public returns(uint ){ // only agencies\n        require(docVeri == 1);\n        uint rand = uint ( keccak256(abi.encodePacked( age, medCond, gen ,docVeri )));\n        rand = rand % idMod;\n        childrenAgen.push(rand);\n        return rand;\n    }\n    \n    \n    function createParentId(uint marStatus, uint net , uint ageComb , uint docVeri, uint yrsMar) public yrsMarriage(yrsMar) returns (uint)\n    {   require(docVeri == 1);\n        uint rand = uint ( keccak256(abi.encodePacked( marStatus, net, ageComb ,docVeri, yrsMar)));\n        rand = rand % idMod;\n        parentAgen.push(rand);\n        return rand;\n    }\n    \n    function parentReq(uint age, uint medCond, uint gen , uint docVeri ) view public returns(int ){ \n        uint parentReqId = uint ( keccak256(abi.encodePacked(age,medCond, gen ,docVeri))) % idMod;\n        for (uint i = 0; i<= childrenAgen.length ; i ++){\n            if(childrenAgen[i] == parentReqId){\n                return int(childrenAgen[i]); //create a new contract\n            }\n            else{\n                return -1;\n            }\n        }\n    }\n    \n    function childReq(uint marStatus, uint net , uint ageComb , uint docVeri, uint yrsMar) view public  returns (int){\n        uint childReqId = uint ( keccak256(abi.encodePacked( marStatus, net, ageComb ,docVeri, yrsMar))) % idMod;\n        for (uint i = 0; i<= parentAgen.length ; i ++){\n            if(parentAgen[i] == childReqId){\n                return int(parentAgen[i]);\n            }else{\n                return -1;\n            }\n        }\n    }\n    \n}\n",
  "sourcePath": "/home/medha/Downloads/05-working-on-layout-with-partials/Ethereum/contracts/Babies.sol",
  "compiler": {
    "name": "solc",
    "version": "0.5.0+commit.1d4f565a.Emscripten.clang"
  },
  "schemaVersion": "3.0.8",
  "updatedAt": "2019-06-11T21:26:05.651Z",
  "devdoc": {
    "methods": {}
  },
  "userdoc": {
    "methods": {}
  }
}